{
  "abi": [
    {
      "inputs": [
        {
          "internalType": "address",
          "name": "_pythAddress",
          "type": "address"
        }
      ],
      "stateMutability": "nonpayable",
      "type": "constructor"
    },
    {
      "inputs": [
        {
          "internalType": "uint256",
          "name": "amount",
          "type": "uint256"
        }
      ],
      "name": "FeeRequired",
      "type": "error"
    },
    {
      "inputs": [
        {
          "internalType": "address",
          "name": "oracleContract",
          "type": "address"
        },
        {
          "internalType": "bytes",
          "name": "oracleQuery",
          "type": "bytes"
        }
      ],
      "name": "OracleDataRequired",
      "type": "error"
    },
    {
      "inputs": [],
      "name": "OverflowInt256ToUint256",
      "type": "error"
    },
    {
      "inputs": [],
      "name": "OverflowUint256ToInt256",
      "type": "error"
    },
    {
      "inputs": [],
      "name": "PRECISION",
      "outputs": [
        {
          "internalType": "int256",
          "name": "",
          "type": "int256"
        }
      ],
      "stateMutability": "view",
      "type": "function"
    },
    {
      "inputs": [
        {
          "internalType": "bytes",
          "name": "signedOffchainData",
          "type": "bytes"
        }
      ],
      "name": "fulfillOracleQuery",
      "outputs": [],
      "stateMutability": "payable",
      "type": "function"
    },
    {
      "inputs": [
        {
          "components": [
            {
              "internalType": "enum NodeDefinition.NodeType",
              "name": "nodeType",
              "type": "uint8"
            },
            {
              "internalType": "bytes",
              "name": "parameters",
              "type": "bytes"
            },
            {
              "internalType": "bytes32[]",
              "name": "parents",
              "type": "bytes32[]"
            }
          ],
          "internalType": "struct NodeDefinition.Data",
          "name": "nodeDefinition",
          "type": "tuple"
        }
      ],
      "name": "isValid",
      "outputs": [
        {
          "internalType": "bool",
          "name": "valid",
          "type": "bool"
        }
      ],
      "stateMutability": "view",
      "type": "function"
    },
    {
      "inputs": [],
      "name": "lastFulfillmentBlockNumber",
      "outputs": [
        {
          "internalType": "uint256",
          "name": "",
          "type": "uint256"
        }
      ],
      "stateMutability": "view",
      "type": "function"
    },
    {
      "inputs": [],
      "name": "oracleId",
      "outputs": [
        {
          "internalType": "bytes32",
          "name": "",
          "type": "bytes32"
        }
      ],
      "stateMutability": "pure",
      "type": "function"
    },
    {
      "inputs": [
        {
          "components": [
            {
              "internalType": "int256",
              "name": "price",
              "type": "int256"
            },
            {
              "internalType": "uint256",
              "name": "timestamp",
              "type": "uint256"
            },
            {
              "internalType": "uint256",
              "name": "__slotAvailableForFutureUse1",
              "type": "uint256"
            },
            {
              "internalType": "uint256",
              "name": "__slotAvailableForFutureUse2",
              "type": "uint256"
            }
          ],
          "internalType": "struct NodeOutput.Data[]",
          "name": "",
          "type": "tuple[]"
        },
        {
          "internalType": "bytes",
          "name": "parameters",
          "type": "bytes"
        },
        {
          "internalType": "bytes32[]",
          "name": "",
          "type": "bytes32[]"
        },
        {
          "internalType": "bytes32[]",
          "name": "",
          "type": "bytes32[]"
        }
      ],
      "name": "process",
      "outputs": [
        {
          "components": [
            {
              "internalType": "int256",
              "name": "price",
              "type": "int256"
            },
            {
              "internalType": "uint256",
              "name": "timestamp",
              "type": "uint256"
            },
            {
              "internalType": "uint256",
              "name": "__slotAvailableForFutureUse1",
              "type": "uint256"
            },
            {
              "internalType": "uint256",
              "name": "__slotAvailableForFutureUse2",
              "type": "uint256"
            }
          ],
          "internalType": "struct NodeOutput.Data",
          "name": "nodeOutput",
          "type": "tuple"
        }
      ],
      "stateMutability": "view",
      "type": "function"
    },
    {
      "inputs": [],
      "name": "pythAddress",
      "outputs": [
        {
          "internalType": "address",
          "name": "",
          "type": "address"
        }
      ],
      "stateMutability": "view",
      "type": "function"
    },
    {
      "inputs": [
        {
          "internalType": "bytes4",
          "name": "interfaceId",
          "type": "bytes4"
        }
      ],
      "name": "supportsInterface",
      "outputs": [
        {
          "internalType": "bool",
          "name": "",
          "type": "bool"
        }
      ],
      "stateMutability": "pure",
      "type": "function"
    }
  ],
  "bytecode": {
    "object": "0x60a060405234801561001057600080fd5b5060405161152b38038061152b83398101604081905261002f91610040565b6001600160a01b0316608052610070565b60006020828403121561005257600080fd5b81516001600160a01b038116811461006957600080fd5b9392505050565b60805161148b6100a0600039600081816101000152818161022e0152818161068601526107df015261148b6000f3fe60806040526004361061007b5760003560e01c8063aaf5eb681161004e578063aaf5eb681461013a578063d6ec0dbd1461014f578063edc296fc14610165578063f65d3e181461018557600080fd5b806301ffc9a71461008057806314b95956146100b55780632121778d146100ca57806365f92bac146100ee575b600080fd5b34801561008c57600080fd5b506100a061009b366004610a30565b6101d8565b60405190151581526020015b60405180910390f35b6100c86100c3366004610b67565b61022a565b005b3480156100d657600080fd5b50630a0b2a8960e31b5b6040519081526020016100ac565b3480156100fa57600080fd5b506101227f000000000000000000000000000000000000000000000000000000000000000081565b6040516001600160a01b0390911681526020016100ac565b34801561014657600080fd5b506100e0601281565b34801561015b57600080fd5b506100e060005481565b34801561017157600080fd5b506100a0610180366004610c24565b61063c565b34801561019157600080fd5b506101a56101a0366004610ccb565b610779565b6040516100ac91908151815260208083015190820152604080830151908201526060918201519181019190915260800190565b60006001600160e01b031982166306e7ea3960e21b148061020957506001600160e01b031982166335982edb60e01b145b8061022457506001600160e01b031982166301ffc9a760e01b145b92915050565b60007f00000000000000000000000000000000000000000000000000000000000000009050600080600080858060200190518101906102699190610eff565b93509350935093508360ff166001146102da5760405162461bcd60e51b815260206004820152602860248201527f4f746865722075706461746520747970657320617265206e6f7420737570706f6044820152671c9d1959081e595d60c21b60648201526084015b60405180910390fd5b60006102e68442610fed565b9050600083516001600160401b0381111561030357610303610a5a565b60405190808252806020026020018201604052801561032c578160200160208202803683370190505b50905060005b8451811015610378578282828151811061034e5761034e611014565b6001600160401b0390921660209283029190910190910152806103708161102a565b915050610332565b50604051631724ada560e31b81526001600160a01b0388169063b9256d289034906103ab908790899087906004016110ff565b6000604051808303818588803b1580156103c457600080fd5b505af1935050505080156103d6575060015b61062d573d808015610404576040519150601f19603f3d011682016040523d82523d6000602084013e610409565b606091505b508060008151811061041d5761041d611014565b6020910101516001600160f81b031916606f60f91b14801561046457508060018151811061044d5761044d611014565b6020910101516001600160f81b031916600b60fa1b145b801561049557508060028151811061047e5761047e611014565b6020910101516001600160f81b031916605760f81b145b80156104c65750806003815181106104af576104af611014565b6020910101516001600160f81b031916607d60f91b145b156104d45743600055610627565b806000815181106104e7576104e7611014565b6020910101516001600160f81b031916600160f91b14801561052e57508060018151811061051757610517611014565b6020910101516001600160f81b031916605d60f81b145b801561055f57508060028151811061054857610548611014565b6020910101516001600160f81b03191660bd60f81b145b801561059057508060038151811061057957610579611014565b6020910101516001600160f81b031916603560fa1b145b1561061e5760405163d47eed4560e01b81526001600160a01b0389169063d47eed45906105c1908790600401611171565b602060405180830381865afa1580156105de573d6000803e3d6000fd5b505050506040513d601f19601f820116820180604052508101906106029190611184565b60405163754ac6fb60e11b81526004016102d191815260200190565b80518060208301fd5b50610632565b436000555b5050505050505050565b6040810151516000901561065257506000919050565b6000826020015180602001905181019061066c919061119d565b506040516396834ad360e01b8152600481018290529092507f000000000000000000000000000000000000000000000000000000000000000091506001600160a01b038216906396834ad390602401608060405180830381865afa1580156106d8573d6000803e3d6000fd5b505050506040513d601f19601f820116820180604052508101906106fc91906111e0565b5060405163d47eed4560e01b81526060906001600160a01b0383169063d47eed459061072c908490600401611171565b602060405180830381865afa158015610749573d6000803e3d6000fd5b505050506040513d601f19601f8201168201806040525081019061076d9190611184565b50600195945050505050565b6107a46040518060800160405280600081526020016000815260200160008152602001600081525090565b600080858060200190518101906107bb919061119d565b92509250504360005403610916576040516396834ad360e01b8152600481018390527f0000000000000000000000000000000000000000000000000000000000000000906000906001600160a01b038316906396834ad390602401608060405180830381865afa158015610833573d6000803e3d6000fd5b505050506040513d601f19601f8201168201806040525081019061085791906111e0565b90506000816040015160030b601261086f919061124a565b9050600080821361089e5761089961088e61088984611272565b61099f565b845160070b906109c6565b6108b5565b6108b56108aa8361099f565b845160070b906109ec565b905042836060015111806108d85750848360600151426108d5919061128e565b11155b15610911576040518060800160405280828152602001846060015181526020016000815260200160008152509650505050505050610997565b505050505b60408051600180825281830190925260009160208083019080368337019050509050828160008151811061094c5761094c611014565b602002602001018181525050306001838360405160200161096f939291906112a1565b60408051601f198184030181529082905263cf2cabdf60e01b82526102d192916004016112d5565b949350505050565b6000808212156109c25760405163029f024d60e31b815260040160405180910390fd5b5090565b60006109db6109d683600a6113dd565b610a06565b6109e590846113e9565b9392505050565b60006109fc6109d683600a6113dd565b6109e59084611425565b60006001600160ff1b038211156109c25760405163677c430560e11b815260040160405180910390fd5b600060208284031215610a4257600080fd5b81356001600160e01b0319811681146109e557600080fd5b634e487b7160e01b600052604160045260246000fd5b604051606081016001600160401b0381118282101715610a9257610a92610a5a565b60405290565b604051608081016001600160401b0381118282101715610a9257610a92610a5a565b604051601f8201601f191681016001600160401b0381118282101715610ae257610ae2610a5a565b604052919050565b60006001600160401b03821115610b0357610b03610a5a565b50601f01601f191660200190565b600082601f830112610b2257600080fd5b8135610b35610b3082610aea565b610aba565b818152846020838601011115610b4a57600080fd5b816020850160208301376000918101602001919091529392505050565b600060208284031215610b7957600080fd5b81356001600160401b03811115610b8f57600080fd5b61099784828501610b11565b60006001600160401b03821115610bb457610bb4610a5a565b5060051b60200190565b600082601f830112610bcf57600080fd5b81356020610bdf610b3083610b9b565b82815260059290921b84018101918181019086841115610bfe57600080fd5b8286015b84811015610c195780358352918301918301610c02565b509695505050505050565b600060208284031215610c3657600080fd5b81356001600160401b0380821115610c4d57600080fd5b9083019060608286031215610c6157600080fd5b610c69610a70565b823560098110610c7857600080fd5b8152602083013582811115610c8c57600080fd5b610c9887828601610b11565b602083015250604083013582811115610cb057600080fd5b610cbc87828601610bbe565b60408301525095945050505050565b6000806000806080808688031215610ce257600080fd5b85356001600160401b0380821115610cf957600080fd5b818801915088601f830112610d0d57600080fd5b81356020610d1d610b3083610b9b565b82815260079290921b8401810191818101908c841115610d3c57600080fd5b948201945b83861015610d905786868e031215610d595760008081fd5b610d61610a98565b863581528387013584820152604080880135908201526060808801359082015282529486019490820190610d41565b99505089013593505080831115610da657600080fd5b610db289848a01610b11565b95506040880135925080831115610dc857600080fd5b610dd489848a01610bbe565b94506060880135925080831115610dea57600080fd5b5050610df887828801610bbe565b91505092959194509250565b80516001600160401b0381168114610e1b57600080fd5b919050565b60005b83811015610e3b578181015183820152602001610e23565b50506000910152565b600082601f830112610e5557600080fd5b81516020610e65610b3083610b9b565b82815260059290921b84018101918181019086841115610e8457600080fd5b8286015b84811015610c195780516001600160401b03811115610ea75760008081fd5b8701603f81018913610eb95760008081fd5b848101516040610ecb610b3083610aea565b8281528b82848601011115610ee05760008081fd5b610eef83898301848701610e20565b8652505050918301918301610e88565b60008060008060808587031215610f1557600080fd5b845160ff81168114610f2657600080fd5b93506020610f35868201610e04565b935060408601516001600160401b0380821115610f5157600080fd5b818801915088601f830112610f6557600080fd5b8151610f73610b3082610b9b565b81815260059190911b8301840190848101908b831115610f9257600080fd5b938501935b82851015610fb057845182529385019390850190610f97565b60608b01519097509450505080831115610fc957600080fd5b5050610df887828801610e44565b634e487b7160e01b600052601160045260246000fd5b6001600160401b0382811682821603908082111561100d5761100d610fd7565b5092915050565b634e487b7160e01b600052603260045260246000fd5b60006001820161103c5761103c610fd7565b5060010190565b6000815180845261105b816020860160208601610e20565b601f01601f19169290920160200192915050565b600081518084526020808501808196508360051b8101915082860160005b858110156110b75782840389526110a5848351611043565b9885019893509084019060010161108d565b5091979650505050505050565b600081518084526020808501945080840160005b838110156110f4578151875295820195908201906001016110d8565b509495945050505050565b606081526000611112606083018661106f565b60208382038185015261112582876110c4565b8481036040860152855180825282870193509082019060005b818110156111635784516001600160401b03168352938301939183019160010161113e565b509098975050505050505050565b6020815260006109e5602083018461106f565b60006020828403121561119657600080fd5b5051919050565b6000806000606084860312156111b257600080fd5b83516001600160a01b03811681146111c957600080fd5b602085015160409095015190969495509392505050565b6000608082840312156111f257600080fd5b6111fa610a98565b82518060070b811461120b57600080fd5b815261121960208401610e04565b602082015260408301518060030b811461123257600080fd5b60408201526060928301519281019290925250919050565b808201828112600083128015821682158216171561126a5761126a610fd7565b505092915050565b6000600160ff1b820161128757611287610fd7565b5060000390565b8181038181111561022457610224610fd7565b60ff841681526001600160401b03831660208201526060604082015260006112cc60608301846110c4565b95945050505050565b6001600160a01b038316815260406020820181905260009061099790830184611043565b600181815b8085111561133457816000190482111561131a5761131a610fd7565b8085161561132757918102915b93841c93908002906112fe565b509250929050565b60008261134b57506001610224565b8161135857506000610224565b816001811461136e576002811461137857611394565b6001915050610224565b60ff84111561138957611389610fd7565b50506001821b610224565b5060208310610133831016604e8410600b84101617156113b7575081810a610224565b6113c183836112f9565b80600019048211156113d5576113d5610fd7565b029392505050565b60006109e5838361133c565b60008261140657634e487b7160e01b600052601260045260246000fd5b600160ff1b82146000198414161561142057611420610fd7565b500590565b80820260008212600160ff1b8414161561144157611441610fd7565b818105831482151761022457610224610fd756fea2646970667358221220248322aa2efcbdf767ef820718c99d3b474ce7d534dca82f5339e91934f7747164736f6c63430008150033",
    "linkReferences": {}
  },
  "methodIdentifiers": {
    "PRECISION()": "aaf5eb68",
    "fulfillOracleQuery(bytes)": "14b95956",
    "isValid((uint8,bytes,bytes32[]))": "edc296fc",
    "lastFulfillmentBlockNumber()": "d6ec0dbd",
    "oracleId()": "2121778d",
    "process((int256,uint256,uint256,uint256)[],bytes,bytes32[],bytes32[])": "f65d3e18",
    "pythAddress()": "65f92bac",
    "supportsInterface(bytes4)": "01ffc9a7"
  },
  "id": 0
}